:10000000E207040000000000000000000000000003
:1000100000000000000000000000000000000000E0
:1000200000000000000000000000000000000000D0
:1000300000000000000000000000000000000000C0
:1000400000000000000000000000000000000000B0
:100FC4004FA92000F07F240020A0B70010002000CB
:100FD40034A0B700400020004420B7001C080200E1
:100FE4000000000026080200000000008A1F7800AC
:100FF4008B1F78008C1F780089FF07000BB024003A
:101004000C0020002AC0B300C3FF07008CFF0700B8
:10101400A0AA2A00A050880040232100B0508800D4
:10102400FAFF37004F067800CF0578004F057800A7
:04103400FFFF370083
:100E24008A1F78008B1F78000AB024000B00200072
:100E3400DBFF0700CF0578004F05780000000600AF
:100DA400E802A900E7FE0700EBFE070008FF0700C2
:100DB4004800200007D420000E20ED00FEFF3A007A
:0C0DC4001020ED00FCFF3A0000000600CB
:10094800470120000E20ED00FEFF3A00EC02A9004E
:040958000000060095
:10095C006004200042A7B7007005200042A7B70032
:10096C0042C7A90000C2B30080407800406A200052
:10097C0090C06800F0C3B30080C06000406A2000E3
:10098C0090C06800406A20000148780000302000C8
:10099C0080007800E06D20009080680000F023005B
:1009AC0080806000E06D200090806800F136880047
:1009BC006004200042A7B7007005200042A7B700D2
:0809CC0042C7A800000006006C
:1009D4000800FA004031200060488800C03D200033
:1009E40070488800F0FF2F0080488800F0FF2F0037
:1009F400904888002022EF000000280022A2B700BF
:100A04002062A9000EFF07000001BE00803E200006
:100A14000100200079FE07000001BE0087FE0700E8
:100A24004100DE0064004000800078006000470060
:100A34000A88BE008100E900030035001018D000C8
:100A44001090D200FBFF3700829FBE008A9FBE0039
:100A54000200BE000E0190009E0190000002EB0017
:100A640078FE07004F05BE004F01BE002007980026
:100A7400310798008A9FBE000200BE000E0190005C
:100A84009E0190000002EB00B8FE07004F05BE0077
:100A94008001780001027800600047005001D10015
:100AA400C080D300640047003008E1002090E100DA
:100AB4000700310061804100E0004A0080027800B4
:100AC40001037800050178008601780002003700F0
:100AD40003017800840178000280710033003A0039
:100AE400D7FE07000001BE00803E20000100200068
:100AF40042FE07000001BE0050FE07004100DE0078
:100B040000A0EC0080007800600047000A88BE0066
:100B14008100E900030035001018D0001090D200C5
:100B2400FBFF3700829FBE000200BE000E01900052
:100B34009E0190000002EB0042FE07004F01BE0040
:100B440020079800310798000200BE000E019000B3
:100B54009E0190000002EB0084FE070080017800F3
:100B640001027800600047005001D100C080D3002A
:100B7400640047003008E1002090E10007003100E4
:100B840061804100E0004A0080027800010378009F
:100B9400050178008601780002003700030178001F
:100BA400840178002062A800000037006100510031
:100BB400E0805900401188002222A90021E2A80007
:100BC4002342A80016FE070015FE07000080FA0065
:040BD4000000060017
:0C06440000DC2500010020000000060082
:0804400020002000000006006E
:100424007800200017A821000E20ED00FEFF3A00FE
:0C0434001020ED00FCFF3A000000060064
:100400000000FA00020AB800500088000200B8009C
:1004100081004200032AB800810042000080FA00F7
:0404200000000600D2
:100448000000FA0002000700780204000000000023
:100458000800E20002003A00100007000000060051
:10046800811F78000200E20002003D0060001000D9
:10047800E08018000600E20002003D006001110063
:10048800E0811900050007004F00E00002003B0072
:1004980060001000E080180000000600020007005D
:1004A8000480BE00000006006022B800060220009A
:1004B8000000D0008180D2000482D2008582D20060
:1004C8000000A8000202520083825A0003003B0089
:1004D8000202420083824A000000A1000603E900EC
:1004E800F3FF3A00000006000080FA000000060052
:100570000000FA000200070006030400000000006B
:100580000800E20002003A00100007000000060028
:10059000839F68000200E20002003D00600010003E
:1005A000E08018000600E20002003D00600111003A
:1005B000E0811900050007004F00E00002003B0049
:1005C00060001000E0801800000006006022B80003
:1005D000060220000000D0008180D2000482D200F8
:1005E0008582D2000000A8000202520083825A00D5
:1005F00003003B000202420083824A000000A10087
:100600000603E900F3FF3A00000006000080FA004C
:0406100000000600E0
:100F1C00208020000A4878003B4088004C40880024
:100F2C000420EF00000420000010E1000700310055
:100F3C00C110DD0040A12000810040000020EF0026
:100F4C00800878000420EC00F6FF37008B1F780037
:100F5C008C1F78008A1F78000B0578008C057800B0
:100F6C0073FF07004F0578004F067800CF05780017
:100F7C00504088008B1F78008C1F78008A1F7800E7
:100F8C000B0578008C05780083FF07004F0578006F
:100F9C004F067800CF0578000020EF002040880035
:100FAC00318020000020EF00804878000020EF0006
:080FBC0000408800000006005F
:100D3C000A01BE0080852900010020000002EB00A2
:100D4C0008FE070062004000E08048000001BE0081
:100D5C006400E1006088E1000500310040002000E3
:100D6C0001002000010178008000780002003700AB
:100D7C0082007800030178007408E1006090E100C3
:100D8C000300360041012000020020000000370063
:080D9C000100780000000600D0
:100E44008A1F78008B1F7800E0FF07000040E20053
:100E540016003200ECFF07000041780021408000BA
:100E6400001020000008E10008003100C1802000CB
:100E740040802000108040000248780011002000CB
:100E84004080200010884000020037000020EF005E
:100E9400204088003180200010C0B30080487800D2
:100EA4000020EF0000408800E7FF3700308020007A
:100EB4001004E0001500320007FA20000E20ED00B7
:100EC400FEFF3A00C9FF070001408000A080200017
:100ED4001008E1000D00390022408000318020001C
:100EE4000020EF00804878000020EF0020408800B8
:100EF4000020EF00004088006410E1000300390086
:100F040082057800CA80200042FF0700CF057800E0
:080F14004F0578000000060003
:100DD0000060EF002202AF000060EC006004E10060
:100DE0000060EF00010032000060EC00000006002F
:100E0C00F0FF07000040E20001003A00FCFF370051
:080E1C0066FE0700000006005D
:1007B8000000FA0000000000000000002682BF00D0
:0807C8000080FA0000000600A9
:100DF000308020001004E0000300320011002000C9
:0C0E000000802000108840000000060068
:100C18000000FA008A1F78008B1F78008C1F78006C
:100C28006458E100010031003D0037009A42780025
:100C380061004500104378001A4078006004E10024
:100C480002003A0011C0B300010037000220EF0093
:100C5800600047001000A0000200AE001000A100D4
:100C6800600047001000A700040037002080200023
:100C7800102CE10001003200290037006281550084
:100C8800020045009080FB0061805500000045008F
:100C98001080FB004800DD00808370008B1F780007
:100CA80082057800C8FE0700CF0578000038E1000B
:100CB800010032001A0037000C00370062FE0700FE
:100CC800800078000E003700D9FE07008000780009
:100CD8000B0037001CC0B300864578000545780036
:100CE80003FE070080007800050037006334E10048
:100CF800F2FF32006634E100F3FF3200F5FF3700FF
:100D0800600047001000A700050037006008E100F8
:100D180003003600810578004A912000ACFF0700E7
:100D28004F067800CF0578004F0578000080FA005C
:040D380000000600B1
:1007D000F1FF2F000620EF000B18E100140031009C
:1007E000030045001080FB00008268000420EF0039
:1007F0006814E1000B0031000800AE00040037006F
:10080000C120DE0010002A000082680003003700CB
:100810004120DE0080007800010278000460EC00D6
:10082000F3FF37000620EC0084007800EAFF370071
:08083000010078000000060041
:100650008A1F78008B1F78008C1F7800620045008D
:10066000104078000080FB00C800DD0063004500FA
:100670001080FB000082700064004500104078008C
:100680000080FB00C800DD00650045001080FB0015
:10069000808170006858E10006003200610045006A
:1006A0003CC0B300904578001A45780092FF0700DF
:1006B0003D00370083004200000420000008E100F4
:1006C00006003600610045002CC0B300904578005C
:1006D0001A45780088FF0700330037009A407800F9
:1006E00040912000014878005191200030C0B300B3
:1006F00080487800C118DD00609120000148780032
:10070000350020000420EF000310E1001400310048
:1007100002004200C100DD0040A1200001004000B5
:100720001000780000037800409120008500400010
:100730004830DE0080487800E18042008102780085
:100740004091200081004000F00F20000000630075
:10075000804878000A20EC000420EC00EAFF370013
:100760008A9FBE00850578004A9120001800070086
:100770004F05BE00800178004191200005814000B6
:10078000F10F20000100600000497800E180420084
:100790000101780040912000810040004818DE00EF
:1007A00080487800610041004F067800CF0578004E
:0807B0004F057800000006006F
:1004F8008A1F78008B1F7800409120000A487800F6
:1005080001C8B3005091200001C875006091200017
:100518000C4878003B0020004A912000AA00070000
:10052800F2CFB300719120008248600072912000E0
:100538007191200011497800C800DE0080912000E8
:100548000148780050002000CF0578004F0578005A
:040558000000060099
:100838008A1F78008B1F78008C1F78006858E100A9
:1008480006003200610045003CC0B30090457800C6
:100858001A45780026FF070035003700E3004500F9
:10086800620045008A1F780091457800104578009D
:1008780038FF07004F05780000017800E5004500C3
:10088800640045008A1F780091457800104578007B
:1008980030FF07004F057800800178000004200031
:1008A8000010E10006003900610045002CC0B300CB
:1008B800904578001A4578000DFF07001C003700A6
:1008C800C110DD0040A120000100400003087800AD
:1008D8000420EF006610E10006003100409120007E
:1008E8008200400002004500904878000420EC0097
:1008F800F8FF37008A9FBE006B0020004A91200055
:10090800B1FF07004F05BE00F2CFB300A191200050
:1009180082486000A2912000A1912000114978002E
:10092800C800DE00B0912000014878008000200057
:100938004F067800CF0578004F05780000000600C4
:10055C000A80FB00C800DD000B80FB0000807000EF
:04056C000000060085
:100BD8008EFE07000220EF000B08E100070031003D
:100BE800010045008A1F78001085FB008CFE070075
:100BF8004F0578000220EC00F7FF37002302AF0012
:100C080001003700FDFF37004DFF07000000060018
:10061400EC02A800470120000E20ED00FEFF3A0086
:0406240000000600CC
:100628000000FA002302AF0001003700FDFF370089
:0C0638002A1188000080FA000000060073
:101038000A8020000B002000490109000B1D7800E0
:04104800000006009E
:10104C00018020008000280000000900B018780002
:10105C00B0587800418020000000280003000900EF
:08106C00B01878000000060036
:020000040001F9
:0400000000000000FC
:08000400004B000000000000A9
:04000C0000000000F0
:0400100000000000EC
:0400140002000000E6
:020000040005F5
:0C57F400FFFF0000BD9200007F3F00009E
:00000001FF
